S3150800000018E900209D01000801140008FF100008E7
S31508000010FD130008DB0D000893230008000000000C
S31508000020000000000000000000000000C9190008D8
S31508000030AD0F0008000000007D1400087D1B0008B5
S31508000040B7010008B7010008B701000899190008A8
S31508000050B7010008B7010008B7010008B701000892
S31508000060B7010008B7010008B7010008F90D000834
S31508000070B7010008B7010008B7010008B701000872
S31508000080B7010008B7010008B7010008B701000862
S31508000090B7010008B7010008B7010008B701000852
S315080000A0B7010008B7010008B7010008B701000842
S315080000B01D1D0008B7010008B7010008B7010008B0
S315080000C0B7010008B7010008B7010008B701000822
S315080000D0B701000885210008CD210008F521000890
S315080000E0B10F000825190008B7010008B701000874
S315080000F0B7010008B7010008B7010008B7010008F2
S31508000100B7010008B7010008DD1E0008B70100089E
S31508000110B7010008B7010008B7010008B91F0008B1
S31508000120610E0008B10E0008B7010008B701000803
S31508000130B7010008B7010008B7010008B7010008B1
S31508000140B7010008B7010008B7010008B7010008A1
S31508000150B7010008B7010008B7010008B701000891
S31508000160B7010008B7010008B7010008B701000881
S31508000170B7010008B7010008B7010008B701000871
S31508000180B7010008B7010008DFF80CD000F038FC0A
S3150800019000480047D92D000818E90020064880477E
S315080001A006480047FEE7FEE7FEE7FEE7FEE7FEE74E
S315080001B0FEE7FEE7FEE7FEE7911B00088901000857
S315080001C0D2B201E000F8012B491EFBD2704700228B
S315080001D0F6E710B513460A4604461946FFF7F0FF38
S315080001E0204610BD0FB400B58DB010A909900B902C
S315080001F000914FF0FF300A9000200C9005480690B9
S31508000200054807906A4609A80F9900F007FB0DB044
S315080002105DF814FB39080008570800082DE9FF5F48
S315080002201D464FF0FF3BD5E9014691465F464FF024
S315080002300008A9697F1C01988847296A8246884769
S315080002400028F6D1BAF1FF3F0CD024F4C064002E82
S3150800025019DD600614D5BAF12B0F09D0BAF12D0FA6
S315080002600ED103E0584604B0BDE8F09F44F480641C
S31508000270A9697F1C01988847761E8246002E02DDF2
S31508000280BAF1300F03D0B9F1000F26D032E0A969D0
S31508000290761E44F400747F1C019888478246002E17
S315080002A005DDBAF1780F06D0BAF1580F03D0B9F1C7
S315080002B0000F10D01EE0B9F1000F02D0B9F1100FEF
S315080002C018D1A969761E24F400747F1C0198884702
S315080002D08246102002E0082000E00A20814609E054
S315080002E008FB0908A969761E44F400747F1C019866
S315080002F088478246002E05DD4946504600F079FAC1
S315080003000028EDDAE96901988847A00502D46FF05C
S315080003100100A8E7E00725D1600613D5600502D5D8
S31508000320C8F1000000E0404629680A1D2A600968ED
S31508000330220501D5087015E0220701D5088011E0CD
S3150800034008600FE02868011D29600068210502D5AC
S3150800035080F8008006E0210702D5A0F8008001E0B9
S31508000360C0F8008038467EE72DE9FE4F804681EAD0
S315080003700300C00F0C46009021F0004123F0004511
S31508000380B8EB0200A94105D24046214690461C46D4
S315080003900B46024623F00040104347D0270DC7F30B
S315080003A00A00C3F30A510290401A019040286BDAFA
S315080003B0C3F3130040F4801B0098924620B1002333
S315080003C0D2EB030A63EB0B0B01985946C0F14002C6
S315080003D0504600F0DDF906460D4650465946019A44
S315080003E000F0F5F910EB08006141002487EA115284
S315080003F084EAE7731A4340D0009A62B3019A012A45
S315080004004FEA075215DC001B61EB02014FF0004270
S3150800041002EA0752CDE90042001C41F58011324636
S315080004202B4600F06FFA03B0BDE8F08F4046214630
S31508000430F9E7001B61EB0201001C41F58013001867
S315080004405B412018A2F5001747EB030140EAD57077
S31508000450B6196D4111E06D084FEA360645EAC075D2
S315080004604FEA0752001B61EB0201001C41F580119F
S3150800047049084FEA30000019514132462B4603B06D
S31508000480BDE8F04F00F02FBA009801224000002383
S31508000490D0EB020263EBE073009821464FEAE07462
S315080004A0B8EB000061EB0401E9E783F000435BE782
S315080004B081F0004158E72DE9FE4F81EA030404F074
S315080004C0004421F0004100944FF0000B23F0004354
S315080004D050EA01045ED052EA03045BD0C3F30A541F
S315080004E0C1F30A552C44A4F2F3340194A0FB025438
S315080004F0C1F3130141F48011C3F3130343F48013CA
S3150800050001FB024400FB034E840A970A44EA81541D
S3150800051047EA8357A4FB076802958D0A05FB0785FA
S315080005204FEA932C04FB0C542705029D4FEA065804
S3150800053047EA1637B5EB08056EEB070C870E920EE1
S3150800054047EA811742EA8312A7FB0201B6EB0B01C1
S3150800055064EB00042B0D43EA0C335E1844EB1C5085
S31508000560DA465146E7FB0201C5F313044FEA0B339B
S3150800057043EA14534FEA0432019C43EA0603A4F102
S315080005800C040294009CCDE900B400F0BBF903B05A
S31508000590BDE8F08F00200146F9E72DE9F04D81EA24
S315080005A0030404F0004B21F0004514464FF0000AFE
S315080005B023F0004150EA050220D054EA01021DD07A
S315080005C0C5F30A570246C5F31303C1F31300C1F373
S315080005D00A5640F4801543F48013A7EB0608101B4F
S315080005E0D64608F2FD3873EB050002D308F1010878
S315080005F001E092185B41B8F1000F03DA00200146CA
S31508000600BDE8F08D00204FF48011064684460EE0C2
S31508000610171B73EB050705D3121B63EB050306438C
S315080006204CEA010C49084FEA300092185B4150EA3F
S315080006300107EDD152EA030012D082EA040083EAE8
S315080006400501084305D0101BAB4106D20122002341
S3150800065006E000224FF0004302E06FF0010253105B
S315080006601AEB06004CEB085110EB0A0041EB0B01A4
S31508000670BDE8F04D00F037B9F0B4CA17CB0F5040BB
S315080006805140C61841F100054FEAC37231462800A9
S315080006904FF0960303D0B623F0BC00F0F6B8304608
S315080006A00021F9E700F0004230F000400AD0C10D01
S315080006B001F56071C0F3160042EA0151C20840070D
S315080006C01143704700200146704701F0004330B4DB
S315080006D021F0004150EA010206D00A0DA2F5607227
S315080006E0C1F31301002A02DC30BC00207047440F16
S315080006F044EAC104C100E01830BC00EBC25000F067
S31508000700BBB830B50B46014600202022012409E07B
S3150800071021FA02F59D4205D303FA02F5491B04FAAC
S3150800072002F52844151EA2F10102F1DC30BD2DE9BF
S31508000730F05F0546002092469B4688460646814657
S3150800074040241BE0284641464746224600F02FF83B
S3150800075053465A46C01A914110D3114618462246A6
S3150800076000F016F82D1A67EB01084F4622460120BD
S31508000770002100F00DF817EB00094E41201EA4F1E8
S315080007800104DFDC484631462A464346BDE8F09F69
S31508000790202A04DB203A00FA02F100207047914033
S315080007A0C2F1200320FA03F3194390407047202A28
S315080007B004DB203A21FA02F00021704721FA02F3FD
S315080007C0D040C2F120029140084319467047202ABA
S315080007D006DBCB17203A41FA02F043EAE07306E05B
S315080007E041FA02F3D040C2F120029140084319466B
S315080007F070473A2800D2303820F02002412A01D327
S31508000800A2F13700884201D34FF0FF30704700004D
S31508000810026811441378016018467047D16004498C
S3150800082051610449116200211161114600F000B9B5
S3150800083011080008250A0008426842B1016811F843
S31508000840013B23B1521EC0E9001218467047012128
S31508000850C160881E704742685AB1C368016843B9C7
S3150800086083688B4205D0491E521CC0E9001200203D
S3150800087070474FF0FF3070470029A8BF7047401CEB
S31508000880490008BF20F00100704710B4B0FA80FC98
S3150800089000FA0CF050EA010404BF10BC704749B1D5
S315080008A0CCF1200421FA04F411FA0CF118BF012145
S315080008B021430843A3EB0C01CB1D4FEA00614FEA25
S315080008C0102042BF002010BC704700EBC3501044F4
S315080008D00029A4BF10BC7047401C490008BF20F07F
S315080008E0010010BC704710B5141E73F1000408DA35
S315080008F0401C41F1000192185B411A4301D120F0D6
S31508000900010010BD2DE9F04D92469B4611B1B1FA92
S3150800091081F202E0B0FA80F220329046FFF738FF03
S3150800092004460F4640EA0A0041EA0B0153465A4676
S31508000930084313D0114653EA010019D0C8F1400202
S315080009405046FFF734FF05460E465046594642467E
S31508000950FFF71EFF084305D0012004E0204639466C
S31508000960BDE8F08D0020054346EAE0762C43374380
S315080009700A986305E40AA0EB08000022FD0A44EA87
S3150800098047540A3002D500200146E9E70105101947
S315080009906941DDE9084500196941BDE8F04DA2E75E
S315080009A0C1F30A52C1F3130140F2FF3341F4801137
S315080009B09A4202DA00200146704740F233439A42CF
S315080009C0A2F2334202DC5242FFF7F1BEFFF7E0BE65
S315080009D030B5041E71F1000404DB4FF000444042B8
S315080009E064EB0101141E73F1000405DB1C464FF08D
S315080009F00043524263EB0403994208BF904230BD5C
S31508000A00064C074D06E0E06840F0010394E807004D
S31508000A1098471034AC42F6D3FFF7BAFB8832000881
S31508000A20A8320008C0B24FF4F05100F097B90000A0
S31508000A302DE9F34F8BB04FF0000801F10C000C467E
S31508000A404FF0010B46460DF1080A01906269012133
S31508000A5001989047051E2DD0252D2CD0216A884750
S31508000A60C0B16269012101989047216A8847002828
S31508000A70F7D1411E62690198904700E0761CA1698A
S31508000A800B988847216A88470028F7D1E1690B98AF
S31508000A908847DBE7A1690B9888470746A84201D132
S31508000AA0761CD3E7E1690B9888477F1C02D1B8F119
S31508000AB0000F6FD046E1002762693D463946019826
S31508000AC090472A2804D16269012101989047012597
S31508000AD0DFF884926269012101989047A0F13001FC
S31508000AE00A290AD24F45E5DC07EB870100EB4107E7
S31508000AF0303FDFD445F01005ECE7E90601D46FF086
S31508000B0000476C280AD04C2814D0682815D06A28C3
S31508000B100DD074281CD07A281AD01DE062690121EC
S31508000B20019890476C2802D045F0040514E045F07A
S31508000B3002050DE045F020050AE0626901210198E9
S31508000B409047682802D045F0080505E045F4006599
S31508000B506269012101989047C4E9015765283DD08B
S31508000B6019DC58287AD00CDC452837D004DC25282F
S31508000B7026D0412831D131E046282FD047282CD11C
S31508000B802CE05B2877D0612828D063287CD064289D
S31508000B9023D15AE0D0E06F2848D008DC66281DD05B
S31508000BA067281BD0692821D06E2816D127E070281F
S31508000BB045D0732868D0752847D078280DD14DE0E0
S31508000BC0A1690B988847054625283FF469AFE1696E
S31508000BD00B9888476D1C3FF46AAFB3E023466A4614
S31508000BE06FF001000B99AFF300809EE045F04000DE
S31508000BF06060A80723464FF0000236D43EE0E807B7
S31508000C007FF447AF2068011D21600068290501D5DA
S31508000C1006701BE7290701D5068017E7A90703D53C
S31508000C20F117C0E9006111E706600FE745F04000DB
S31508000C306060A80723464FF0080216D41EE040F667
S31508000C400E0125EA0100606016E045F0400060608C
S31508000C50A80723464FF00A0207D40FE045F04000E4
S31508000C606060A80708D5234610226FF001000B998B
S31508000C70AFF3008059E007E0234610226FF0010029
S31508000C800B99FFF7CBFA50E04FF000094F464B4659
S31508000C90632802D05B2806D040E0E80601D401208C
S31508000CA0A06001273AE062690121019890475E2811
S31508000CB005D14FF0010962694946019890472169B3
S31508000CC039B900210A46534643F82120491C082908
S31508000CD0FADBB0B3216969B9C11700EBD1625311C8
S31508000CE00AEB830122F01F02821A01200B6890404A
S31508000CF003430B6062690121019890475D28E8D19A
S31508000D00B9F1000F09D00020514651F82020D243EE
S31508000D1041F82020401C0828F7DB02AB2246009742
S31508000D206FF001000B99AFF3008000280CDA401C25
S31508000D3008D1BBF1000F05D04FF0FF300DB0BDE86C
S31508000D40F08FFFE74046F9E7E90701D108F1010806
S31508000D5006444FF0000B79E6CCCCCC0C7F2801D9A1
S31508000D60002208E0064A02EB5002C007127800D1BA
S31508000D70120902F00F020120904008407047000057
S31508000D800032000870B58C1810F8015B15F00703DF
S31508000D9001D110F8013B2A1106D110F8012B03E006
S31508000DA010F8016B01F8016B5B1EF9D12B0705D40E
S31508000DB00023521E0DD401F8013BFAE710F8013B57
S31508000DC0CB1A921C03E013F8015B01F8015B521E73
S31508000DD0F9D5A142D8D3002070BD00BFFEE7024670
S31508000DE041EA0220704770B504460D46294620465A
S31508000DF0FFF7EDF970BD000010B51349134800F070
S31508000E0081F8E0B112480078012818D11148007815
S31508000E10012806D10021800701F0DDF801200E49DE
S31508000E20086000214FF0804001F0D5F802F002F981
S31508000E300121880701F0CFF8002007490860074913
S31508000E40024800F045F810BD20000010106002406E
S31508000E5001000020030000208C024142208000107F
S31508000E6010B50D490D4800F04DF880B10C480278D0
S31508000E7007210C4800F006FC0948007808B901204B
S31508000E8000E0002006490870012007490870074954
S31508000E90024800F01DF810BD200000101064024042
S31508000EA006000020000002400500002020800010F7
S31508000EB010B50549054800F047F818B10249034836
S31508000EC000F006F810BD000020800010886002407F
S31508000ED00246094B9A4201D2084801E006481038F2
S31508000EE001F000531BB1064B0B40C36002E0044BF4
S31508000EF00B408360704700001064024000600240A7
S31508000F007D0F7D0F30B503460A46002000240B4DA1
S31508000F10AB4201D20A4901E00849103902F00055EE
S31508000F200DB14C6800E00C68064D2C4004EA020539
S31508000F300DB1012000E0002030BD00001064024021
S31508000F40006002407D0F7D0F70B502460020002428
S31508000F500025124EB24201D2114B01E00F4B103B55
S31508000F60104E0E4036B11E2606EAD124166806EA49
S31508000F70040502E0566906F0800501F000560EB138
S31508000F805C6800E01C68084E344004EA010616B1A5
S31508000F900DB1012000E0002070BD00001064024081
S31508000FA0006002403C0F3C0F7D0F7D0F704700002C
S31508000FB010B54FF4005000F02BF800B3002416E0EB
S31508000FC000200F49088000BF02210D480C3800F0A8
S31508000FD0F2FC0028F8D000200949088000BF022149
S31508000FE007480C3800F0E7FC0028F8D0641C022CEF
S31508000FF0E6DB01F053FE4FF4005000F003F810BD95
S315080010000C3C00400149086070470000143C014050
S3150800101001460020034A12680A400AB1012000E08E
S3150800102000207047143C0140F0B50A460021002311
S31508001030002400BF3DE0012505FA01F3156805EA1D
S3150800104003049C4234D105684F000326BE40B543CD
S31508001050056015794E00B540066835430560157973
S31508001060012D02D01579022D16D185684F00032669
S31508001070BE40B543856055794E00B5408668354310
S315080010808560456801268E40B54345604568967972
S315080010908E40B6B235434560C5684F000326BE404C
S315080010A0B543C560D5794E00B540C6683543C560B9
S315080010B0491C1029BFD3F0BDF0B5002300244D0705
S315080010C0ED0E02FA05F3CE1000F1200555F826506C
S315080010D04E07F70E0F26BE40B543CF1000F1200687
S315080010E046F82750CE1000F1200555F8265045EA57
S315080010F00304CE1000F1200545F82640F0BD00BFD8
S31508001100FEE7000010B588B004460121084600F045
S3150800111065FB0121102000F081FB02208DF81C00E0
S3150800112000208DF81E004FF4C060069000208DF850
S315080011301F0002208DF81D0006A91C48FFF774FF42
S31508001140072209211948FFF7B7FF07220A2117487E
S31508001150FFF7B2FF02940020ADF814000C20ADF89A
S3150800116012000020ADF81000ADF80E00ADF80C0026
S3150800117002A90F4801F09AF801210D4801F057F825
S31508001180012240F225510A4801F06AF825208DF817
S31508001190040002208DF805008DF8060001208DF860
S315080011A0070001A800F02EF908B010BD00000240A3
S315080011B00010014070B57948007801287ED10020DA
S315080011C076490870002676480078002877D1754851
S315080011D000780028FAD1744800780028F6D17348B8
S315080011E000780028F2D10024D1E00025C8E004EBFD
S315080011F044006F4901EB001000EBC50000686D491B
S31508001200096808446C49096888427DDA04EB440099
S31508001210674901EB001000EBC5004068654909689D
S31508001220401A6549096888426EDD04EB4401634843
S3150800123000EB011000EBC50000685E490968084428
S315080012405F4909688842E0DA04EB44015B4800EB31
S31508001250011000EBC500406856490968401A58490C
S315080012600968884250DD04EB4401564800EB01103A
S3150800127000EBC50000684F490968084452490968E7
S3150800128088427BDA04EB44014E4800EB011000EB80
S31508001290C500406847490968401A4B4909688842A9
S315080012A06CDD04EB4401494800EB011000EBC50076
S315080012B00068404909680844454901E06DE06BE06B
S315080012C0096888425ADA04EB4401404800EB0110E9
S315080012D000EBC500406837490968401A3C49096867
S315080012E088424BDD04EB44013A4800EB011000EB61
S315080012F0C50000682F4909680844374909688842C3
S315080013003CDA04EB440100E038E0324800EB011017
S3150800131000EBC500406827490968401A2E49096844
S3150800132088422BDD04EB44012C4800EB011000EB4E
S31508001330C50000681F4909680844294909688842A0
S315080013401CDA04EB4401254800EB011000EBC5004C
S31508001350406818490968401A2149096888420DDD1C
S31508001360204805702048047002781E4801781FA09E
S3150800137001F012F80120204908700126681CC5B240
S31508001380062D02DA002E3FF432AF601CC4B2062CDA
S3150800139002DA002E3FF429AF00BF70BDB80700205F
S315080013A05D0000205E0000205F0000206000002035
S315080013B094000020A407002028000020B401002083
S315080013C02C000020D402002030000020F403002066
S315080013D034000020140500203800002034060020C0
S315080013E03C000020A0070020A107002058203D252A
S315080013F0642C59203D256400A207002000BFFEE7A3
S315080014007047000070B5002100230F22C4781CB372
S31508001410174C246804F4E064C4F5E064C4F30721B7
S31508001420C1F10404E3B20A4144789C40E1B28478ED
S31508001430144021430C07210E0E4C0578615504789B
S3150800144004F01F050124AC4005786D11AD0005F1C7
S31508001450E025C5F8004109E0047804F01F050124D9
S31508001460AC40054D0678761145F8264070BD00005B
S315080014700CED00E000E400E080E100E070470000C9
S315080014806C48007828BB6C48007810BB6B4800781D
S31508001490F8B96B480078E0B96A480078012818D18D
S315080014A000206849087068480068401C664908605A
S315080014B008460068B0F5FA7F0BD101205D4908702F
S315080014C05D4908705D4908705D49087000205E49ED
S315080014D008605E48007801287DD100205B490870C5
S315080014E05B480068401C5A49086008460068642141
S315080014F0B0FBF1F201FB1200032802D10120554985
S315080015000870534800680521B0FBF1F201FB120090
S31508001510012801D1504908704D4800684FF47A7186
S31508001520B0FBF1F201FB1200B0F5FA7F02D10120FF
S315080015304A490870464800684FF47A71B0FBF1F2E0
S3150800154001FB12000A2802D10120454908704048CB
S3150800155000684FF4FA71B0FBF1F201FB12001E2885
S3150800156002D101203F490870394800684FF4FA61F2
S31508001570B0FBF1F201FB1200022802D101203A4920
S315080015800870334800684FF4FA71B0FBF1F201FBBA
S315080015901200322802D10120344908702C4800680C
S315080015A04FF4FA71B0FBF1F201FB1200142802D1D4
S315080015B001202F490870264800684FF4FA71B0FBDD
S315080015C0F1F201FB1200012801D12A4908702048CE
S315080015D00068642100E02BE0B0FBF1F201FB120089
S315080015E0012801D124490870194800683221B0FB46
S315080015F0F1F201FB1200052802D101201F490870EB
S31508001600134800681421B0FBF1F201FB120005280B
S3150800161002D101201A4908700D4800680521B0FB5F
S31508001620F1F201FB1200042802D101200A490870D0
S31508001630704700005D0000205E0000205F0000206B
S3150800164060000020D3070020C4070020D20700202E
S31508001650C0070020B7070020B4070020BB070020FA
S31508001660BC070020BD070020BF070020B8070020E0
S31508001670B5070020BE070020B6070020B9070020DE
S31508001680BA0700207CB505460C46164601208DF89B
S31508001690040000208DF806000120A04000900220DA
S315080016A08DF8050000208DF8070069462846FFF7E3
S315080016B0BBFC1F48854205D11E4901EB8400C0F8D2
S315080016C0806234E01C48854205D11C4901EB840040
S315080016D0C0F880622BE01A48854205D1194901EB0A
S315080016E08400C0F8806222E01748854205D1174970
S315080016F001EB8400C0F8806219E01548854205D1DF
S31508001700144901EB8400C0F8806210E01248854253
S3150800171005D1124901EB8400C0F8806207E0104841
S31508001720854204D10F4901EB8400C0F880627CBD74
S31508001730000002400000404200040240008040428F
S315080017400008024000004142000C0240008041426D
S31508001750001002400000424200140240008042424B
S3150800176000180240000043422DE9F05F04460D468A
S3150800177094F8019094F802A094F807B02079E178DB
S3150800178040EA0126A079617940EA0127207A010614
S31508001790607A41EA0041A07A41EA0020E17A40EA0B
S315080017A001080A48C0F80080094A0AA104F108009D
S315080017B0FEF718FDF9B2F0B2FFF711FB06490880EB
S315080017C029462046FFF70FFBBDE8F09F740000206E
S315080017D070000020256C64006C00002029B1064AC0
S315080017E012680243044B1A6004E0034A12688243F3
S315080017F0014B1A60704700003038024029B1064A8A
S3150800180012680243044B1A6004E0034A12688243D2
S31508001810014B1A60704700004038024029B1064A59
S3150800182012680243044B1A6004E0034A12688243B2
S31508001830014B1A607047000044380240F0B5002199
S3150800184000220024022500260223324F3F6807F0B3
S315080018500C0121B1042905D0082937D105E02E4FFE
S31508001860076036E02D4F076033E02A4F3F1F3F6879
S31508001870C7F38056274F3F1F3F6807F03F036EB1F7
S31508001880264FB7FBF3F7DFF88CC0ACF1040CDCF895
S3150800189000C0CCF3881C07FB0CF40CE01E4FB7FB0A
S315080018A0F3F7DFF870C0ACF1040CDCF800C0CCF339
S315080018B0881C07FB0CF4174F3F1F3F68C7F3014707
S315080018C07F1C7D00B4FBF5F7076002E0124F076046
S315080018D000BF00BF0F4F3F6807F0F0010909104F1E
S315080018E07A5C0768D74047600A4F3F6807F4E051BB
S315080018F0890A0B4F7A5C4768D7408760054F3F686F
S3150800190007F46041490B064F7A5C4768D740C760C1
S31508001910F0BD0000083802400024F40000127A00E6
S315080019208100002010B54FF4807000F021F80128DE
S3150800193005D1000200F00EF803A000F02DFD4FF4CB
S315080019400030FFF75FFB10BD414C41524D2041214D
S315080019500D0A000081B241F08001044A126802F0C3
S31508001960800262EA0101014A116070470C280040B2
S3150800197010B5014600200022054B1B68054C03EAFA
S31508001980040202EA01030BB1012000E0002010BDA9
S315080019900C2800407F3F010010B54FF48060FFF728
S315080019A0E7FF012802D18002FFF7D4FF4FF4800039
S315080019B0FFF728FB10BD0246002013890B400BB128
S315080019C0012000E0002070477047000010B504466B
S315080019D02146094800F0D9FC00BF8021064800F0DE
S315080019E032FC0028F9D000BF4021034800F02BFC48
S315080019F00028F9D010BD00000010014010B50446BB
S31508001A0003E02078FFF7E2FF641C20780028F8D16D
S31508001A1010BD00000CB50020019000903448006805
S31508001A2040F480303249086000BF3148006800F44D
S31508001A30003000900198401C0190009818B9019850
S31508001A40B0F5A04FF1D12A48006800F4003010B173
S31508001A500120009001E0002000900098012846D15E
S31508001A6023484030006840F08050214940310860E2
S31508001A702048006840F440401E4908601C48083069
S31508001A8000681B49083108600846006840F40040B1
S31508001A9008600846006840F4A05008601648091F08
S31508001AA00860081F006840F08070091F086000BFC2
S31508001AB00F48006800F000700028F9D040F2057061
S31508001AC00E4908600A480830006820F003000849F3
S31508001AD0083108600846006840F00200086000BF48
S31508001AE003480830006800F00C000828F8D10CBD3F
S31508001AF0003802400070004008544007003C02408D
S31508001B0070B504460D461646EE20FFF75FFFB12076
S31508001B10FFF75CFF1020FFF759FF200AFFF756FF73
S31508001B20E0B2FFF753FF280AFFF750FFE8B2FFF7C6
S31508001B304DFF3046FFF762FFFF20FFF747FFFC2007
S31508001B40FFF744FFFF20FFF741FFFF20FFF73EFFA7
S31508001B5070BD042808D14FF0E021096941F004015D
S31508001B604FF0E022116107E04FF0E021096921F00A
S31508001B7004014FF0E022116170470000012002497C
S31508001B800870024908707047D2070020D307002062
S31508001B9010B51548006840F47000134908601348EA
S31508001BA0006840F001001149086000200F4908311B
S31508001BB008600E4800680E4908400C4908600D4840
S31508001BC0091D0860081F006820F48020091F0860A6
S31508001BD0002006490C310860FFF71CFF4FF0006033
S31508001BE001498039086010BD88ED00E000380240E0
S31508001BF0FFFFF6FE10300024F0B50C46154600210E
S31508001C000022068C4FF6FE773E400684018B028C36
S31508001C104FF60C7631407E1C06EA03162E433143F6
S31508001C204FF6F576324044F00106324301830284CA
S31508001C30F0BDF0B50C461546002100220026078C9B
S31508001C404FF6EF7C07EA0C070784018B028C4FF6E8
S31508001C50FF7707EA041640F6FF4739404FF6FF7745
S31508001C6007EA033739434FF6FF7707EA052739436B
S31508001C704FF65F773A4046F010073A4301830284ED
S31508001C80F0BDF0B50C461546002100220026078C4B
S31508001C904FF6FF6C07EA0C070784818B028C4FF618
S31508001CA0FF7707EA04264FF60C7739404FF6FF7799
S31508001CB007EA03172F4339434FF2FF573A4046F4D2
S31508001CC080773A4381830284F0BDF0B50C46154609
S31508001CD0002100220026078C4EF6FF7C07EA0C0737
S31508001CE00784818B028C4FF6FF7707EA043640F6A5
S31508001CF0FF4739404FF6FF7707EA052739434FF67E
S31508001D00FF7707EA0337394345F6FF773A4046F443
S31508001D1080573A4381830284F0BD000010B5012143
S31508001D20880700F070F9012827D100BF1548006818
S31508001D300128FBD013480068F8B913480078E0B9C1
S31508001D40002416E000201149088000BF02210F4830
S31508001D500C38FFF730FE0028F8D000200B49088021
S31508001D6000BF022109480C38FFF725FE0028F8D0E5
S31508001D70641C022CE6DB00F091FF0121880700F0C5
S31508001D8027F910BD34024142040000200C3C0040F3
S31508001D9030B589B004460D4601210820FFF72EFD0F
S31508001DA001210846FFF71AFD0F20049002208DF83E
S31508001DB0140003208DF8150000208DF81600022067
S31508001DC08DF8170004A94348FFF72EF902220021CF
S31508001DD04048FFF771F9022201213E48FFF76CF9E6
S31508001DE0022211463B48FFF767F9022203213948C8
S31508001DF0FFF762F9ADF804500020ADF8060002942A
S31508001E00ADF80C0001A9344800F07AF90020ADF8C5
S31508001E101800ADF81A000120ADF81C000020ADF836
S31508001E201E000120ADF8200006A92B4800F0FCF89A
S31508001E300420ADF818000020ADF81A000120ADF80E
S31508001E401C000020ADF81E000120ADF8200006A9F0
S31508001E50214800F0E9F80820ADF818000020ADF890
S31508001E601A000120ADF81C000020ADF81E00012064
S31508001E70ADF8200006A9184800F0D6F80C20ADF8F1
S31508001E8018000020ADF81A000120ADF81C0000204B
S31508001E90ADF81E000120ADF8200006A90E4800F096
S31508001EA0C3F801221F210C4800F0F5F801210A4861
S31508001EB000F091F832208DF8000000208DF801001E
S31508001EC08DF8020001208DF803006846FFF79AFA9C
S31508001ED009B030BD00000240000C004010B50221D8
S31508001EE02B4800F090F878B12A48007801280BD1E1
S31508001EF029480078012807D1254800F078F82749AD
S31508001F0008600020244908700421214800F07BF865
S31508001F1078B12048007801280BD12148007801289B
S31508001F2007D11B4800F066F81E49086000201C49C6
S31508001F3008700821164800F066F878B11548007848
S31508001F4001280BD118480078012807D1104800F05D
S31508001F5054F81649086000201349087010210C48E7
S31508001F6000F051F878B10B48007801280BD11048D9
S31508001F700078012807D1064800F042F80D490860A4
S31508001F8000200B4908701F21014800F021F810BDF8
S31508001F90000C0040580000205D00002018000020BA
S31508001FA05E0000201C0000205F00002020000020AA
S31508001FB0600000202400002010B50121034800F02D
S31508001FC022F80121014800F003F810BD0014004072
S31508001FD0CA430282704721B1028842F00102028098
S31508001FE004E002884FF6FE731A40028070470146E5
S31508001FF0486B70470146886B70470146C86B704747
S315080020000146086C704730B50246002000230024BC
S31508002010158A05EA0103958905EA010413B10CB18D
S31508002020012000E0002030BD70B505460C4620882A
S3150800203050B92389A28861882846FFF7DDFDE18823
S31508002040284600F031F825E0208804280AD123899B
S31508002050A28861882846FFF7ECFDE188284600F04B
S315080020602CF817E0208808280AD12389A2886188D5
S315080020702846FFF706FEE188284600F02BF809E017
S315080020802389A28861882846FFF71FFEE18828462B
S3150800209000F029F870BD1AB183890B43838102E0E9
S315080020A083898B4383817047028B4FF6F3731A40FB
S315080020B00283028B0A4302837047028B4FF2FF3377
S315080020C01A400283028B4FF6FF7303EA01231A4371
S315080020D002837047828B4FF6F3731A408283828B92
S315080020E00A4382837047828B4FF2FF331A408283FA
S315080020F0828B4FF6FF7303EA01231A4382837047E4
S3150800210000220288184B98420ED0184B98420BD0E2
S31508002110B0F1804F08D0164B984205D0154B98421F
S3150800212002D0154B984204D14FF68F731A404B884C
S315080021301A43124B984207D0114B984204D04FF6D7
S31508002140FF431A400B891A4302804B68C3620B8807
S315080021500385054B984202D0044B984201D18B7AED
S315080021600386012383827047000001400004014072
S315080021700004004000080040000C00400010004029
S315080021800014004010B540F225510E4800F05BF8E7
S31508002190012807D10B4800F0F3F8C4B2204600F036
S315080021A01FFF00BF40F22661064800F04CF80128E0
S315080021B006D10020044908704021024800F02EF894
S315080021C010BD0000001001408000002010B540F24C
S315080021D02551074800F037F840F22661044800F018
S315080021E032F8012803D14021014800F017F810BD44
S315080021F00044004010B540F22551074800F023F886
S3150800220040F22661044800F01EF8012803D1402157
S31508002210014800F003F810BD0048004001F40072C0
S31508002220B2F5007F00D100BFCA430280704721B1D2
S31508002230828942F40052828104E082894DF6FF7356
S315080022401A408281704702460020B1F5007F00D10E
S3150800225000BF13880B400BB1012000E00020704737
S31508002260F0B50346002400260025002040F66A172C
S31508002270B94200D100BF1846C1F3421401F01F0647
S31508002280012707FA06F5012C01D10C3004E0022CCF
S3150800229001D1103000E014301AB107682F430760E7
S315080022A002E00768AF430760F0BD00002DE9FF476D
S315080022B005460E460024A14600BFA046B08900B1D7
S315080022C000BF2C8A24F44054F08804432C82AC893D
S315080022D041F20C608443B088318908437189084308
S315080022E00443AC81AC8A24F44074B0890443AC82BC
S315080022F06846FFF7A3FA2048854202D01F48854260
S3150800230002D1DDF80C9001E0DDF80890A88900F408
S31508002310004040B109EBC90000EB091031684900DB
S31508002320B0FBF1F707E009EBC90000EB09103168CB
S315080023308900B0FBF1F76420B7FBF0F0040120092F
S31508002340642101FB1078A88900F4004040B13220CE
S3150800235000EBC800B0FBF1F000F00700044308E00A
S31508002360322000EB08106421B0FBF1F000F00F00FA
S3150800237004432C81BDE8FF8700100140001401408A
S3150800238001468888C0F308007047C1F308028280B6
S31508002390704700BFFEE700000FB4054B10B503A950
S315080023A0044A029800F0DEF810BC5DF814FB000041
S315080023B0BD2D0008680000200FB4084B10B504A90D
S315080023C002AA039800F0CEF8044602A9002000F0FD
S315080023D060FC204610BC5DF814FB0000932C000836
S315080023E002E008C8121F08C1002AFAD170477047D0
S315080023F0002001E001C1121F002AFBD1704700002E
S315080024002DE9FF5FDDE90220010DDDF838B0024352
S3150800241018D044F61050A1F2FF3141430D140F981D
S31508002420012820D0A5EB0B00401C5FEA000A4FF0FC
S315080024300004474EDFF81C91A046504616D5CAF14F
S31508002440000728E00F98012443A2012808D000219C
S3150800245000980F9BC0E90021C0E90243BDE8FF9F31
S315080024606FEA0B01F4E7CBF10000DEE7074612E05E
S31508002470F80707D02246334640464946FEF71BF87A
S31508002480804689462246334610461946FEF713F813
S3150800249004460E467F10002FEAD1DDE90201BAF1A3
S315080024A0000F42464B4602DAFEF705F801E0FEF752
S315080024B074F804460E460022284BFEF789FA03D81C
S315080024C04FF0FF30014607E00022254B20463146F3
S315080024D0FDF74AFFFEF764FA102409E0002C0ADB30
S315080024E00A220023FEF723F9019B30321A55641E8F
S315080024F050EA0102F2D1641C019AC4F11103144492
S315080025000F9A012A03D0012208430DD10AE0084395
S3150800251004D000204FF0110B0F9080E7A3EB0B05BA
S315080025206D1E0DE05B4504DD4FF0000205F1010567
S3150800253004E003DA4FF00002A5F10105002AECD009
S3150800254000980F99C0E90231C0E9004586E7000006
S31508002550000024400000F03F300000000000F04377
S315080025600000E03F2DE9FF4F95B09B468946064699
S3150800257000250FE2252877D100242746F84A0121AD
S31508002580059400E0044316F8013F203B01FA03F0E6
S315080025901042F7D130782A2811D06FF02F033078FF
S315080025A0A0F13002092A16D8059A44F0020402EB73
S315080025B0820203EB42021044761C0590EFE759F8B5
S315080025C0042B0592002A03DA504244F4005405907D
S315080025D044F00204761C30782E2816D116F8010F1E
S315080025E044F004042A280DD06FF02F023078A0F1A9
S315080025F03003092B09D807EB870302EB4303C718F7
S31508002600761CF3E759F8047B761C30786C280FD0D3
S3150800261006DC4C2817D068280DD06A2814D104E0A7
S31508002620742810D07A280FD10DE044F400140AE07B
S3150800263044F4801401E044F440147278824202D1D2
S3150800264004F58014761C761C307866280BD013DCCB
S31508002650582877D009DC002875D04528F6D04628B2
S31508002660F4D047281AD19DE118E0632835D06428AC
S3150800267079D0652812D195E1702873D008DC6728CF
S31508002680F1D069286FD06E280DD06F2806D1B5E035
S3150800269073282CD0752875D0782874D05A4617997F
S315080026A090476D1C75E1C4F30250022809D003282F
S315080026B00DD0D9F8001004280DD00D6009F10409D1
S315080026C067E1D9F80010EA17C1E90052F6E7D9F828
S315080026D000100D80F2E70D70F0E719F8041B8DF86D
S315080026E0001000208DF80100EA46012003E059F8A1
S315080026F004AB4FF0FF3061074FF0000102D40DE044
S3150800270008F101018846B9420FDA8045F8DB1AF864
S3150800271008100029F4D108E008F101018846814231
S31508002720FADB1AF808100029F6D105985B46A0EBE3
S31508002730080721463846179A00F094FA284400EB11
S31508002740080507E04DE029E10DE01AF8010B5A46A5
S3150800275017999047B8F10108F7D25B4621463846E3
S31508002760179A13E142E00A220092C4F302524FF08C
S31508002770000A022A08D059F804CB032A4FEAEC715A
S315080027800AD00DE029E02AE009F1070121F0070245
S31508002790F2E802C1914609E00FFA8CFC4FEAEC71A7
S315080027A0042A03D14FFA8CFC4FEAEC71002907DAA8
S315080027B00A460021DCF1000C61EB02012D2202E041
S315080027C0220504D52B228DF80420012203E0E20716
S315080027D001D02022F7E7904659E00A2102E01022AC
S315080027E00DE010214FF0000A00910BE010224FF087
S315080027F0000A44F004040827009203E008224FF078
S31508002800000A0092C4F30252022A05D059F804CBF2
S315080028100021032A08D009E009F1070121F007027F
S31508002820F2E802C1914605E01FFA8CFC042A01D1A0
S315080028300CF0FF0C4FF00008220728D5702806D0A8
S31508002840009B83F0100353EA0A0305D00EE04022EA
S315080028508DF80420012208E05CEA010206D0302245
S315080028608DF804208DF8050002229046009B83F01F
S31508002870080353EA0A030AD15CEA010201D1620796
S3150800288005D530228DF804204FF001087F1E582800
S3150800289004D034A003900EA802900DE036A0F9E704
S315080028A053466046009AFDF742FF84460398825CC9
S315080028B00298401E029002705CEA0100F0D102986C
S315080028C006A9081A00F1200A600702D524F4803404
S315080028D000E00127574502DDA7EB0A0000E00020CB
S315080028E000EB0A01009005984144401A0590E00360
S315080028F006D45B462146179A059800F0B3F90544B5
S31508002900002706E001A85A46C05D179990476D1C36
S315080029107F1C4745F6DBE0030CD55B462146179A34
S31508002920059800F09FF9054404E030205A461799A7
S3150800293090476D1C0099481E00900029F5DC08E0B8
S31508002940029802995A460078491C029117999047AD
S315080029506D1CBAF10001AAF1010AF1DC65E100007B
S315080029600928010030313233343536373839616257
S31508002970636465660000000030313233343536371B
S3150800298038394142434445460000000000F058F9F2
S315080029900544761C307800287FF4ECAD19B028463B
S315080029A0BDE8F08F620700D4062709F1070222F076
S315080029B0070CFCE80223E14603F000485FEA080C2E
S315080029C002D00FF2702C0DE05FEA045C02D50FF21C
S315080029D0682C07E05FEAC47C02D00FF2602C01E0A5
S315080029E0AFF2700C4FF0FF3823F00043CDF850C01B
S315080029F065280CD006DC452809D046281DD047286E
S31508002A003DD13DE0662818D067287ED138E0002100
S31508002A10112F01DB112000E0781CCDE9000106A981
S31508002A200EA8FFF7EDFCDDE90F010E9A03910021D0
S31508002A30009207F1010A04914DE04FF0004000971B
S31508002A40CDE9011006A90EA8FFF7DAFCDDE90F02A9
S31508002A5003920E9B11990022DDF80CA000930492B4
S31508002A6011B9791C00EB010AB7EB0A0004D4C0F1CE
S31508002A70FF3007F1010A0490AAEB0700019044E031
S31508002A80012F00DA01270021112F01DD112000E0B6
S31508002A903846CDE9000106A90EA8FFF7B1FCDDE925
S31508002AA00F010E9A0391002104910092BA4621075C
S31508002AB00CD40399514500DA8A46BAF1010F05DDAF
S31508002AC0009AAAF10101515C302908D0B84202DA0D
S31508002AD010F1040F06DA0121CDE9011015E0AAF17B
S31508002AE00101E9E7002805DC049901440491AAEBF1
S31508002AF0000102E0411C514500DD8A460499401A4E
S31508002B00401C01904FF000400290200704D4019821
S31508002B10504501DBCDF8048000208DF84F0002985F
S31508002B200DF14F07B0F1004F25D02B200E900298DB
S31508002B304FF0020800280CDA404202902D200E9031
S31508002B4007E00A210298FDF7DCFD3031029007F80C
S31508002B50011DB8F10001A8F10108F2DC029800286D
S31508002B60EFD1791E0E980870307800F0200040F0FA
S31508002B70450007F8020D12A8C01B00F107081498B3
S31508002B80007800B1012000EB0A01019801EBE07121
S31508002B9005984144401A401E0590E00306D45B465A
S31508002BA02146179A059800F05DF8054414980078B0
S31508002BB018B15A46179990476D1CE00324D55B4611
S31508002BC02146179A059800F04DF805441CE004982C
S31508002BD0002807DBDDE90301884203DD0098405C35
S31508002BE0179901E0179930205A469047049805F13D
S31508002BF00105401C04900198401E019004D12E2026
S31508002C005A46179990476D1CBAF10001AAF1010AB4
S31508002C10DDDC05E017F8010B5A46179990476D1C3D
S31508002C20B8F10001A8F10108F4DC5B462146179AC1
S31508002C300598ABE62D0000002B00000020000000E0
S31508002C402DE9F041044600251E461746880404D49B
S31508002C5005E039462020B0476D1C641EF9D5284684
S31508002C60BDE8F0812DE9F041044600251E46904650
S31508002C70C80301D5302700E02027880404D505E0DD
S31508002C8041463846B0476D1C641EF9D52846BDE84E
S31508002C90F0810A68531C0B601070704700200749C2
S31508002CA008600749C1F8940204490860086008608A
S31508002CB001200349C1F89402704700009402424279
S31508002CC00000424210B504466FF00400FEF741FFCB
S31508002CD0E11704EB5171C1F3C701074A1170104699
S31508002CE0007800EB4001C1EBC0104FF6FF7101EA16
S31508002CF0C0000249088010BDC8070020CA07002086
S31508002D0000B587B01C480078012833D100201A493D
S31508002D1008701A4908701A481A49097850F8213073
S31508002D2019481A49097850F8212019A104A8FFF76B
S31508002D3043FB04A918A0FFF72FFB12480278134893
S31508002D40017817A0FFF728FB17480078022810D14A
S31508002D5016480C490978435C15480C490978425CC1
S31508002D6014A101A8FFF728FB01AA02210020FEF7FB
S31508002D70C7FE00BF07B000BDBE070020A20700209F
S31508002D8088070020A107002070070020A007002060
S31508002D902825732C2573290025730D0A00000000C9
S31508002DA025642025640000006C07002060070020C9
S31508002DB0540700202825732C2564290000BF054ADE
S31508002DC0128802F04002002AF9D0C2B2014B9A805A
S31508002DD0704700000010014045F20821481EB0F176
S31508002DE0807F00D31BE0481E4FF0E0225061501749
S31508002DF00322002807DA93071D0E154B00F00F046F
S31508002E00241F1D5503E093071C0E124B1C5400BFCC
S31508002E1000204FF0E02290610720106100BFA82033
S31508002E20FFF750FF4FF4E130FEF76CF953214FF0EE
S31508002E30FF30FEF7ADFF09E0FEF722FB00F00CF8C5
S31508002E40FEF7B8F900F054F9FFF75AFFF4E7000067
S31508002E5018ED00E000E400E010B52B4800780128E2
S31508002E6051D10020284908704021284800F05CF814
S31508002E702749087008460078002844D00846017893
S31508002E802248FEF771FC23480088042804D0052848
S31508002E9014D0062836D123E01F4800681F49884207
S31508002EA003D101201E49087007E01B4800681D4928
S31508002EB0884202D100201A49087023E016480068A3
S31508002EC01649884203D102201549087007E01248BE
S31508002ED000681449884202D100201149087011E09F
S31508002EE00D4800680D49884203D103200C49087033
S31508002EF007E0094800680B49884202D100200849C2
S31508002F00087000BF00BF10BDB7070020D487002097
S31508002F10780000206C00002074000020FCFF0101EE
S31508002F206C070020FCFF0001F8B504460D46002694
S31508002F30002000902FE0684600F038F8194800880D
S31508002F4020B99DF80000EE2800D024E01548008836
S31508002F50A84208DA9DF80010124802880088401C2A
S31508002F60104B1880A1549DF800000F49096840EAE3
S31508002F7001200D490860084600686FF44031884210
S31508002F8008D10848068800200749086005490880CE
S31508002F903046F8BD00BF00F03BF80028CBDC002027
S31508002FA0F7E70000D0070020CC07002001460B48B1
S31508002FB040880A4A128890420FD008484288001D65
S31508002FC0805C0870054A5288501CC21700EBD25222
S31508002FD05212A0EB4222014B5A80704714880020F7
S31508002FE001460A4B1B88581CC31700EBD3535B12C8
S31508002FF0A0EB43239AB205484088904205D003487F
S315080030000388001DC154001F0280704714880020E1
S315080030100748008800F50070054A5288811AC817C3
S3150800302001EBD0504012A1EB402080B2704700005F
S31508003030148800202DE9F0472DED068B0020244941
S31508003040087000243BE0002534E0224800EB8500A8
S3150800305010F814801F4800EB850000EB440090F838
S3150800306001904FEA08200FFA80F848EA0906F71790
S3150800307030B2194901EB850121F81400394630466A
S31508003080FDF7FAFA8246FDF70DFB9FED140B53EC9C
S31508003090102BFDF782FA9FED130B53EC102BFDF75F
S315080030A00AFAFDF712FB114901EBC50141F82400A4
S315080030B0681C85B2B5F5006FC7DB601C84B2022CAC
S315080030C0C1DB012002490870BDEC068BBDE8F0871C
S315080030D001000020D4070020D427002000000000AB
S315080030E0E0FFCF400000000000001440D447002055
S315080030F010B53148007801285DD100202E490870A6
S315080031002E480078002856D12D480078002852D13C
S315080031102C48007800284ED12B48007800284AD140
S315080031202A4800682A490968401A2A49086028482E
S31508003130006829490968401A28490860264800682D
S3150800314027490968401A27490860254800681F4921
S315080031500968401A244908601C4800681E4909681D
S31508003160401A224908601A4800681D490968401A29
S315080031701F490860174801681EA0FFF70DF9174890
S3150800318001681CA0FFF708F91648016819A0FFF79F
S3150800319003F91548016817A0FFF7FEF813480168F8
S315080031A014A0FFF7F9F81248016812A0FFF7F4F81F
S315080031B012A0FFF7F1F810BDBD0700205D00002042
S315080031C05E0000205F00002060000020180000203C
S315080031D01C00002028000020200000202C000020D1
S315080031E02400002030000020340000203800002091
S315080031F03C00002025396420000000000D0A00006C
S31508003200DDDDDDDDDCBBBBDDDDDDDDDDDDDDDDDD25
S315080032109888888888888888777777777788888865
S3150800322085555556666666666666666666688888FD
S315080032308333333222222222222222222228888DF6
S3150800324030393130000000003031303200000000E3
S3150800325031313132000000003033303400000000D4
S3150800326030353036000000003037303800000000B6
S31508003270414200004344000045460000474800001C
S31508003280494A00004B4C0000A83200080000002004
S31508003290D4070000840D000848370008D40700202A
S315080032A044E10000F02300080128320A23E803233A
S315080032B0102714A086011440420F04198096983AE4
S315080032C00105190101242D01020304043506070826
S315080032D009180A0CFEFFFFB4FFFFFF34041AF604B0
S315080032E01A46043279191733FF7332641A1259329F
S315080032F0771A36081AFF191A951C1A540432151A21
S31508003300BB0832B51ADC0832C2321B32E25A973091
S315080033101A30181AD5041A6304322A1A9808322D54
S315080033201AB808329F323C294032621A06301A3BD4
S31508003330181ABA041A84041AF9041AAB04320C1AB5
S31508003340F20832753248329A327D32E81A661832F5
S31508003350451A92081ADB041ACB045A06C0324632BA
S315080033604D32852A5FAC311A53181AD1041A8B04C8
S315080033701AD3041ADA0432193202325D322032A71D
S3150800338029542AADB0194932051AE1081A7F2C1AB0
S3150800339014041AA0041A180432701ACC181A990CB4
S315080033A01AA2081A770829901ADF041A6A041AEE6C
S315080033B0041A6E041AEB041A48041AC8041A2904D3
S315080033C01AE1041A17041ABC041AAD042A1DD419E2
S315080033D00832231AA30832281A74085A3B18321FCF
S315080033E01AA40832301AD90832491AE50832551A89
S315080033F0E80832511AF2083273320D327F1AE31096
S315080034003275322F3272321E329C324B3285325628
S3150800341032843258329D325A32B4297C329E326C0A
S3150800342032A0328C32B7328A5AD81032F932642333
S3150800343017011A9F681A2708321332CC1AB01032AD
S315080034404329D81AF8041A5604299C1ECEFEFFFFF3
S31508003450BE08323732B2320332611ABD1432441A08
S31508003460790832761A5D081ADD041AE03029FC322A
S315080034705232D6321632961ACD1432655A534C1A2F
S31508003480370829141A20041A8704326932E23236B8
S3150800349032AE1AC81432571AF7081AAF041A230498
S315080034A01AB5041AD6601A5C0832A132F6323232DC
S315080034B0BA1AE71432381AA9081ADA041A54041A76
S315080034C09C041ADF301AA60829F832DC325E32C3A9
S315080034D03202325429541AF9041A36041AB2041A52
S315080034E0AC301A9708327E3259327023580132505E
S315080034F01A010829A032D0321F1A1E1032482AFA99
S3150800350004193432E11AEB0832C51AF40829C8320C
S31508003510101A45281AF2103290320F1A16101AB0DD
S31508003520102A51EC190829945AC1081AAB085A9F4F
S3150800353010326A1AD80832671A8D0832171A7608AE
S315080035401AF8041A860432311A9E085A1548322F78
S315080035501AB308327D1A2D081AA2041A21041ACEA3
S31508003560041A68041ADA041A79041AB8041A8F04B1
S315080035701AD4041A4C041AD7041A10041AA0041EE2
S31508003580EDFEFFFF5C085A29341A2F041A87041A1D
S3150800359055041AA5041AAC2032081E5FFDFFFF1A4F
S315080035A0101A60102A574019D432341A430C1AE7F5
S315080035B0041A49045A32D02A53081928329E1AE79F
S315080035C0082AD0381904321F1A42085A2DF03266D2
S315080035D01AF20832971AF9281ACC0C1A3B041AFB65
S315080035E0041A6D04320C1AB70832771AF8082950EB
S315080035F0324B32F729281ADC041A9204323329ACE2
S31508003600323E295C32AF32501A35A432481A0908BC
S315080036102AA2EC19041AD3043259320F328F327B9C
S3150800362032A732C81A06281119041A54041AB028DF
S3150800363032213211325A32735ABB2C1A052032F60D
S315080036401A610832E91ABC081AEBC029281A383850
S315080036501AE0041A23041AB9041ADE181A6B081A8F
S315080036602A081A31081EA8FDFFFFDA0C2AD5E4310C
S315080036701AAC0832251A58081AF6041AF11C1ACC7C
S31508003680081AC5081A88081AD8301A3308322F3289
S31508003690B91AC90C32A51AA00832601AC72832AC62
S315080036A01A28101AB8041AEE101A7C085A79D02A61
S315080036B03DA03129FC32801AD208320E1A5B081A4C
S315080036C0E1041119041AA4042AFBBC193032961A0B
S315080036D02C0832563287321F323A1AC32432192935
S315080036E094323232B51A902832E51A4308328A1AC9
S315080036F00A08325172A229E01A9D30323718184149
S3150800370042434445464748494A4B4C0C0B0A09086C
S3150800371007060504030232211370321B0874041AC3
S3150800372078041A7C041A80041A84041A48041A585D
S31508003730041A60041A68041A40041A5004811A9874
S30D08003740992904012400000088
S7050800018968
